:03000000020B30C0
:0C0B3000787FE4F6D8FD758132020B7767
:1008840020202000202020202000204C6F773D20B5
:10089400202020546F703D2020200020003E0020A6
:1008A40020437572543D2020202020202020200049
:1008B400204C6F773D32302020546F703D3335200B
:1008C400004100420043004400202020202020203A
:1008D40020004120202020202020204220202020F1
:1008E40020200043202020202020202044202020DD
:1008F40020202000202047657420202053656E733B
:100904006F722020002020204E6F2053656E736F7D
:1009140072202020200020202020202020202020A1
:10092400202020202020002044533138423230201F
:08093400416C61726D657200F7
:100F6D0002180000021A0000021C0000021E000000
:100F7D00C186C187C180C181011000010900010A2C
:100F8D0000010B00010C00011700011100010E14EE
:090F9D00010F23010D0001080001
:04120F008E308F315D
:10121300E5311531AE3070021530FFEF4E600E75BB
:0D1223003200E532C3947850E7053280F5C3
:01123000229B
:10124E008E2E8F2FC2A5852F807F057E0012120F46
:0C125E00D2A77F057E0012120FC2A7224B
:10126A008F2ED2A5852E807F057E0012120FD2A75F
:0A127A007F057E0012120FC2A722AA
:100F17008F298D2A8B2B8A2C892DE52A7011AF29D1
:100F27007E00EF2480FFEE3400FE12124E800FAFDA
:100F3700297E00EF24C0FFEE3400FE12124EAB2BC9
:100F4700AA2CA92D1209F1FFEF601AAB2BAA2CA925
:100F57002D1209F1FF12126A7401252DF52DE435C2
:060F67002CF52C80D922BC
:100FDB008F298D2A8B2BE52A7011AF297E00EF24E8
:100FEB0080FFEE3400FE12124E800FAF297E00EF11
:100FFB0024C0FFEE3400FE12124EAF2B12126A22E7
:1010BB00C2A7C2A67F387E0012124E7F0C7E001292
:1010CB00124E7F067E0012124E7F017E0012124ED0
:0810DB007F807E0012124E22FC
:10123100759850758920758700758DFD758BFDD268
:0D124100AFD2ACD28E7F647E0012120F225D
:020191008F23BA
:10019300752400752500752600752900752A00E56C
:1001A30023120A7101B70101CF0201E70301FF0422
:1001B30000000215752500752641A202E4FE33FFF7
:1001C3008E278F2885182985192A8046752500755D
:1001D3002642A203E4FE33FF8E278F28851A298542
:1001E3001B2A802E752500752643A204E4FE33FFE7
:1001F3008E278F28851C29851D2A80167525007555
:100203002644A205E4FE33FF8E278F28851E298509
:100213001F2AE523C3940540030202C685269930AD
:1002230099FDC29975993D3099FDC299E5286401FC
:100233004527700575992D800375992B3099FDC25B
:1002430099AE29AF2A7C037DE8120A1CEF2430F50E
:10025300993099FDC299AE29AF2A7C037DE8120A31
:100263001C7E007F64CFCDCFCECCCE120A1CEF24F0
:1002730030F5993099FDC299AE29AF2A7C007D648F
:10028300120A1C7E007F0ACFCDCFCECCCE120A1C21
:10029300EF2430F5993099FDC29975992E3099FD67
:1002A300C299AE29AF2A7C007D0A120A1CAF05EF62
:1002B3002430F5993099FDC29975990D3099FDC295
:1002C30099801E752400E524C3940A500C75992A5D
:1002D3003099FDC299052480ED75990D3099FDC2C1
:0A02E30099D2AF7F647E0012120F63
:0102ED0022EE
:0A1284008F27AF271527EF70F9221E
:10118300C208D2B47F04121284C2B47F5C121284E8
:10119300D2B47F0D121284A2B492087F1212128469
:0211A300A208A0
:0111A5002227
:10100B00752500752600752508E525D39400401934
:10101B00C2B4E526C313F526D2B430B403432680FD
:0B102B007F09121284152580E0AF261B
:011036002297
:0210E3008F2557
:1010E500752600752608E526D394004018C2B4E598
:1010F500251392B47F09121284D2B4E525C313F5E2
:0511050025152680E124
:01110A0022C2
:1011A600C208D2B57F04121284C2B57F5C121284C3
:1011B600D2B57F0D121284A2B592087F1212128444
:0211C600A2087D
:0111C8002204
:10103700752500752600752508E525D39400401908
:10104700C2B5E526C313F526D2B530B503432680CE
:0B1057007F09121284152580E0AF26EF
:01106200226B
:02110B008F252E
:10110D00752600752608E526D394004018C2B5E56E
:10111D00251392B57F09121284D2B5E525C313F5B7
:05112D0025152680E1FC
:01113200229A
:1011C900C208D2B67F04121284C2B67F5C1212849E
:1011D900D2B67F0D121284A2B692087F121212841F
:0211E900A2085A
:0111EB0022E1
:10106300752500752600752508E525D394004019DC
:10107300C2B6E526C313F526D2B630B6034326809F
:0B1083007F09121284152580E0AF26C3
:01108E00223F
:021133008F2506
:10113500752600752608E526D394004018C2B6E545
:10114500251392B67F09121284D2B6E525C313F58D
:0511550025152680E1D4
:01115A002272
:1011EC00C208D2B77F04121284C2B77F5C12128479
:1011FC00D2B77F0D121284A2B792087F12121284FA
:02120C00A20836
:01120E0022BD
:10108F00752500752600752508E525D394004019B0
:10109F00C2B7E526C313F526D2B730B70343268070
:0B10AF007F09121284152580E0AF2697
:0110BA002213
:02115B008F25DE
:10115D00752600752608E526D394004018C2B7E51C
:10116D00251392B77F09121284D2B7E525C313F563
:05117D0025152680E1AC
:01118200224A
:100C47001211837FCC1210E37F441210E312118339
:100C57007FCC1210E37FBE1210E312100B8F23120A
:100C6700100B8F24AF247E008E188F19E519751984
:100C770000F518AF237E00EE4218EF4219C3E519BD
:100C870094FFE518940F5004C2028014E519F4FF8D
:100C9700E518F4FEEF2401F519EE3400F518D20239
:100CA700AE18AF197C007D0A120A0AEEC4F854F098
:0B0CB700C868F518EFC4540F48F51989
:010CC200220F
:100CC3001211A67FCC12110B7F4412110B1211A625
:100CD3007FCC12110B7FBE12110B1210378F231210
:100CE30010378F24AF247E008E1A8F1BE51B751BD4
:100CF30000F51AAF237E00EE421AEF421BC3E51B39
:100D030094FFE51A940F5004C2038014E51BF4FF0B
:100D1300E51AF4FEEF2401F51BEE3400F51AD203B5
:100D2300AE1AAF1B7C007D0A120A0AEEC4F854F017
:0B0D3300C868F51AEFC4540F48F51B08
:010D3E002292
:100D3F001211C97FCC1211337F441211331211C912
:100D4F007FCC1211337FBE1211331210638F231217
:100D5F0010638F24AF247E008E1C8F1DE51D751D23
:100D6F0000F51CAF237E00EE421CEF421DC3E51DB4
:100D7F0094FFE51C940F5004C2048014E51DF4FF8A
:100D8F00E51CF4FEEF2401F51DEE3400F51CD20432
:100D9F00AE1CAF1D7C007D0A120A0AEEC4F854F097
:0B0DAF00C868F51CEFC4540F48F51D88
:010DBA002216
:100DBB001211EC7FCC12115B7F4412115B1211EC00
:100DCB007FCC12115B7FBE12115B12108F8F23121F
:100DDB00108F8F24AF247E008E1E8F1FE51F751F73
:100DEB0000F51EAF237E00EE421EEF421FC3E51F30
:100DFB0094FFE51E940F5004C2058014E51FF4FF09
:100E0B00E51EF4FEEF2401F51FEE3400F51ED205AE
:100E1B00AE1EAF1F7C007D0A120A0AEEC4F854F016
:0B0E2B00C868F51EEFC4540F48F51F07
:010E36002299
:08093C008E238F248D258B26EC
:10094400AE23AF247C037DE8120A1CEF2430F51299
:10095400AE23AF247C037DE8120A1C7E007F64CFA3
:10096400CDCFCECCCE120A1CEF2430F513AE23AF7C
:10097400247C007D64120A1C7E007F0ACFCDCFCE7A
:10098400CCCE120A1CEF2430F514AE23AF247C0025
:100994007D0A120A1CAF05EF2430F515E525700514
:1009A40075282B800375282DAB28AD27AF26120F91
:1009B400DBE52604FFAB12AD27120FDBE52624028C
:1009C400FFAB13AD27120FDBE5262403FFAB14ADF9
:1009D40027120FDBE5262404FF7B2EAD27120FDB45
:0C09E400E5262405FFAB15AD27120FDB44
:0109F00022E4
:1002EE007523007524007525007526007527007589
:1002FE002800E50E75F06484F523E50E75F0648430
:10030E00AFF0EF75F00A84F524E50E75F00A8485DA
:10031E00F025E50F75F06484F526E50F75F064841D
:10032E00AFF0EF75F00A84F527E50F75F00A8485B6
:10033E00F0287BFF7A0879847D017F05120F177BE9
:10034E00FF7A0879887D017F0D120F17E523600C67
:10035E00E5232430FB7D017F05120FDBE5237010B2
:10036E00E524600CE5242430FB7D017F05120FDBB4
:10037E00E523600CE5242430FB7D017F06120FDBA4
:10038E00E5237012E524700EE5252430FB7D017FF8
:10039E0005120FDB8014E5237010E524600CE525B3
:1003AE002430FB7D017F06120FDBE523600CE52573
:1003BE002430FB7D017F07120FDBE526600CE5265E
:1003CE002430FB7D017F0D120FDBE5267010E52733
:1003DE00600CE5272430FB7D017F0D120FDBE52637
:1003EE00600CE5272430FB7D017F0E120FDBE52626
:1003FE007012E527700EE5282430FB7D017F0D126B
:10040E000FDB8014E5267010E527600CE5282430FC
:10041E00FB7D017F0E120FDBE526600CE5282430F4
:08042E00FB7D017F0F120FDBC3
:0104360022A3
:100437003090030204CC7F147E0012120F20901B11
:10044700E50DC394025011050D7BFF7A08798E7D67
:10045700017F00120F178003750D00E50D120A7159
:1004670004740004900104AC02000004C67BFF7A08
:1004770008799F7D017F00120F177BFF7A08799F0C
:100487007D017F08120F1780367BFF7A0879A17DDF
:10049700017F00120F177BFF7A08799F7D017F0884
:1004A700120F17801A7BFF7A08799F7D017F001250
:1004B7000F177BFF7A0879A17D017F08120F1712AA
:1004C70002EE3090FD209141E50D603D7F147E00E6
:1004D70012120F209133E50D120A7104EC0104FC8E
:1004E700020000050AE50EC3947D5004050E801333
:1004F700750E7D800EE50FC3947D5004050F8003B4
:10050700750F7D1202EE3091FD209241E50D603DA1
:100517007F147E0012120F209233E50D120A710527
:1005270030010540020000054EE50ED3940040045B
:10053700150E8013750E00800EE50FD3940040044E
:10054700150F8003750F001202EE3092FD209310F5
:100557007F147E0012120F2093066311FF3093FD64
:010567002271
:10056800200637AF0F7E0AEF8EF0A4FFAEF0D3E57A
:10057800199FE5189E5017AF0E7E0AEF8EF0A4FF64
:10058800AEF0C3E5199FE5189E4003300207C2A3E9
:100598007509018005D2A3750900200737AF0F7EC2
:1005A8000AEF8EF0A4FFAEF0D3E51B9FE51A9E502C
:1005B80017AF0E7E0AEF8EF0A4FFAEF0C3E51B9FC7
:1005C800E51A9E4003300307C2A2750A018005D2CE
:1005D800A2750A00200037AF0F7E0AEF8EF0A4FF45
:1005E800AEF0D3E51D9FE51C9E5017AF0E7E0AEFB7
:1005F8008EF0A4FFAEF0C3E51D9FE51C9E400330BE
:100608000407C2A1750B018005D2A1750B0020015A
:1006180037AF0F7E0AEF8EF0A4FFAEF0D3E51F9F31
:10062800E51E9E5017AF0E7E0AEF8EF0A4FFAEF0C7
:10063800C3E51F9FE51E9E4003300507C2A0750C49
:10064800018005D2A0750C00E511601DE509640163
:100658006011E50A6401600BE50B64016005E50CB7
:0C066800B40103C2A422D2A422D2A42216
:100E3700200619120C47A202E433FD7527007B0731
:100E4700AF19AE1812093C7F011201912007191240
:100E57000CC3A203E433FD7527007B07AF1BAE1A53
:100E670012093C7F02120191200019120D3FA204C2
:100E7700E433FD7527007B07AF1DAE1C12093C7FCD
:100E870003120191200119120DBBA205E433FD7570
:100E970027007B07AF1FAE1E12093C7F041201918A
:060EA7007F0512019122FB
:10067400200679120C47A202E433FD7527007B01A2
:10068400AF19AE1812093C7F0112019120071C1208
:100694000CC3A203E433FD7527007B0AAF1BAE1A1B
:1006A40012093C7F0212019102077A20001C120DEC
:1006B4003FA204E433FD7527007B0AAF1DAE1C1274
:1006C400093C7F0312019102077A30010302077A81
:1006D400120DBBA205E433FD7527007B0AAF1FAEE4
:1006E4001E12093C7F0412019102077A2007551259
:1006F4000CC3A203E433FD7527007B01AF1BAE1AC4
:1007040012093C7F0212019120001B120D3FA2042A
:10071400E433FD7527007B0AAF1DAE1C12093C7F34
:1007240003120191805020014D120DBBA205E43348
:10073400FD7527007B0AAF1FAE1E12093C7F041211
:1007440001918032120D3FA204E433FD7527007B32
:1007540001AF1DAE1C12093C7F03120191120DBBA7
:10076400A205E433FD7527007B0AAF1FAE1E1209F4
:0C0774003C7F041201917F0512019122CC
:10078000300603020830120C47A202E433FD75273D
:10079000007B01AF19AE1812093C7F0112019120B4
:1007A000075A120CC3A203E433FD7527007B0AAF7E
:1007B0001BAE1A12093C7F0212019120001C120D7F
:1007C0003FA204E433FD7527017B01AF1DAE1C126F
:1007D000093C7F0312019102087E30010302087E6A
:1007E000120DBBA205E433FD7527017B01AF1FAEDF
:1007F0001E12093C7F0412019102087E120D3FA2D5
:1008000004E433FD7527007B0AAF1DAE1C12093CC2
:100810007F03120191120DBBA205E433FD75270180
:100820007B01AF1FAE1E12093C7F04120191804E66
:1008300020074B120CC3A203E433FD7527007B0194
:10084000AF1BAE1A12093C7F02120191120D3FA29A
:1008500004E433FD7527007B0AAF1DAE1C12093C72
:100860007F03120191120DBBA205E433FD75270130
:100870007B01AF1FAE1E12093C7F041201917F0560
:0408800012019122AE
:100EAD00120C47A202E433FD7527007B01AF19AE8A
:100EBD001812093C7F01120191120CC3A203E433F5
:100ECD00FD7527007B0AAF1BAE1A12093C7F02127B
:100EDD000191120D3FA204E433FD7527017B01AF93
:100EED001DAE1C12093C7F03120191120DBBA20510
:100EFD00E433FD7527017B0AAF1FAE1E12093C7F3F
:0A0F0D00041201917F0512019122E8
:10000300E510120A7100180100330200DB030176C8
:1000130004000001907BFF7A0879A37D007F001222
:100023000F177BFF7A0879B47D017F00120F172227
:100033002006437BFF7A0879C57D007F00120F17E6
:1000430020070F7BFF7A0879C77D007F09120F17FE
:10005300807820000F7BFF7A0879C97D007F091221
:100063000F1780662001637BFF7A0879CB7D007FC1
:1000730009120F1780542007317BFF7A0879C77D57
:10008300007F00120F1720000F7BFF7A0879C97DCC
:10009300007F09120F17803220012F7BFF7A087926
:1000A300CB7D007F09120F17802020000D7BFF7A84
:1000B3000879C97D007F00120F1720010D7BFF7A9D
:1000C3000879CB7D007F09120F177BFF7A0879B47B
:1000D3007D017F00120F172220065D7BFF7A0879CE
:1000E300C57D007F00120F172007317BFF7A087947
:1000F300C77D007F09120F1720000F7BFF7A087955
:10010300C97D017F00120F17805B2001587BFF7AA6
:100113000879CB7D017F00120F1780497BFF7A0896
:1001230079C97D007F09120F177BFF7A0879CB7D90
:10013300017F00120F17802D20072A7BFF7A087991
:10014300C77D007F00120F1720000D7BFF7A08790F
:10015300C97D007F09120F177BFF7A0879CB7D01D8
:100163007F00120F177BFF7A0879CD7D017F09127B
:100173000F17227BFF7A0879D67D007F00120F17B5
:0E0183007BFF7A0879E77D017F00120F1722BB
:100BBC00C206C207C200C201751000121183920650
:100BCC001211A692071211C992001211EC92017F18
:100BDC00C87E0012120F2006020510200702051015
:100BEC00200002051020010205107BFF7A0879F81D
:100BFC007D017F00120F17E5102430FB7D017F066D
:100C0C00120FDB7FE87E0312120FE510700F7BFFD3
:100C1C007A0979097D007F00120F1780ED7BFF7A2E
:100C2C0009791A7D007F00120F177BFF7A09791A58
:0B0C3C007D017F00120F171200032241
:100FA7007523007599533099FDC2997599743099D5
:100FB700FDC2997599613099FDC2997599723099F9
:100FC700FDC2997599743099FDC29975990D30993B
:030FD700FDC299BF
:010FDA0022F4
:100A970075220075A0FF1210BB120C47120CC3126F
:100AA7000D3F120DBB7BFF7A09792B7D007F00126A
:100AB7000F17121231120FA77FE87E0312120F7B56
:100AC700FF7A09791A7D007F00120F177BFF7A09D9
:100AD700791A7D017F00120F17120BBC750800E50C
:100AE7000D703DE510B40103120E37E510B4020393
:100AF700120674E510B40306120003120780E5100E
:100B0700B4041D7BFF7A0879C97D017F00120F1796
:100B17007BFF7A0879CB7D017F09120F17120EAD83
:080B270012043712056880B7C3
:010B2F0022A3
:100B3C00020A97E493A3F8E493A34003F68001F22E
:100B4C0008DFF48029E493A3F85407240CC8C333BA
:100B5C00C4540F4420C8834004F456800146F6DF89
:100B6C00E4800B0102040810204080900F6DE47E9D
:100B7C00019360BCA3FF543F30E509541FFEE4937E
:100B8C00A360010ECF54C025E060A840B8E493A345
:100B9C00FAE493A3F8E493A3C8C582C8CAC583CA70
:100BAC00F0A3C8C582C8CAC583CADFE9DEE780BE28
:010FA600004A
:1009F100BB010689828A83E0225002E722BBFE0204
:090A0100E32289828A83E4932236
:100A0A00EF8DF0A4A8F0CF8CF0A428CE8DF0A42E00
:020A1A00FE22BA
:100A1C00BC000BBE0029EF8DF084FFADF022E4CCBE
:100A2C00F875F008EF2FFFEE33FEEC33FCEE9DEC87
:100A3C00984005FCEE9DFE0FD5F0E9E4CEFD22EDCD
:100A4C00F8F5F0EE8420D21CFEADF075F008EF2F17
:100A5C00FFED33FD4007985006D5F0F222C398FD08
:050A6C000FD5F0EA22A5
:100A7100D083D082F8E4937012740193700DA3A314
:100A810093F8740193F5828883E473740293686028
:060A9100EFA3A3A380DF28
:00000001FF
